:100000000C942A000C9447000C9447000C94470071
:100010000C9447000C9447000C9447000C94470044
:100020000C9447000C9447000C94150D0C94470059
:100030000C9447000C9447000C9447000C94470024
:100040000C9464070C9447000C9447000C944700F0
:100050000C94470011241FBECFE5D8E0DEBFCDBF12
:1000600010E0A0E6B0E0EAE6F0E202C005900D92F2
:10007000AC3AB107D9F710E0ACEAB0E001C01D928C
:10008000A63BB107E1F70E949A0D0C9433100C9433
:100090000000EF92FF920F931F937B018C0120E0F1
:1000A00030E040E05FE40E94F50388238CF0C80153
:1000B000B70120E030E040E05FE40E94C1010E940F
:1000C00055049B01AC01205030404040504806C0D0
:1000D000C801B7010E9455049B01AC01B901CA01D6
:1000E0001F910F91FF90EF900895A0E0B0E0EBE733
:1000F000F0E00C94FC0FDC012B01FA019C91923092
:1001000008F439C1EB018881823008F433C194309E
:1001100069F4843009F02FC111969C91119789815F
:10012000981709F428C1A3EAB0E025C1843009F486
:1001300021C18230A9F4923009F01DC19A01AD01AC
:1001400088E0EA010990AE01E90109929E0181501F
:10015000C1F7E201898111969C918923818308C1AD
:10016000923009F407C112962D903C901397EB0141
:100170008A819B811496AD90BD90CD90DC901797AD
:10018000EC80FD800E811F819101281B390BB90184
:1001900037FF04C066277727621B730B6032710537
:1001A0000CF061C0121613066CF537014801062EDB
:1001B00004C096948794779467940A94D2F721E0C8
:1001C00030E040E050E004C0220F331F441F551FB1
:1001D0006A95D2F721503040404050402E213F21B7
:1001E00040235123211531054105510521F021E01E
:1001F00030E040E050E079018A01E628F72808293C
:1002000019293CC0232BD1F1260E371E350146019A
:10021000062E04C096948794779467940A94D2F734
:1002200021E030E040E050E004C0220F331F441FC3
:10023000551F6A95D2F721503040404050402A2146
:100240003B214C215D21211531054105510521F04E
:1002500021E030E040E050E059016A01A628B728CB
:10026000C828D9280BC0821593052CF01C01AA249C
:10027000BB24650103C0EE24FF24870111969C91E5
:10028000D20111968C91981709F445C0992339F041
:10029000A80197012A193B094C095D0906C0A6016E
:1002A00095012E193F09400B510B57FD08C01182D3
:1002B0003382228224833583468357831DC081E0A5
:1002C00081833382228288279927DC01821B930B4A
:1002D000A40BB50B84839583A683B7830DC0220F2F
:1002E000331F441F551F24833583468357838281E0
:1002F000938101979383828324813581468157813D
:10030000DA01C9010197A109B1098F5F9F4FAF4F72
:10031000BF4328F30BC0918333822282EA0CFB1C7B
:100320000C1D1D1DE482F5820683178383E0808304
:10033000248135814681578157FF1AC0C901AA27F8
:1003400097FDA095BA2F81709070A070B0705695EF
:10035000479537952795822B932BA42BB52B848318
:100360009583A683B7838281938101969383828349
:10037000DF0101C0D201CD01CDB7DEB7E2E10C94BF
:100380001810A0E2B0E0E7ECF1E00C9408106983EB
:100390007A838B839C832D833E834F835887E9E048
:1003A000EE2EF12CEC0EFD1ECE010196B7010E943F
:1003B0007E058E010F5E1F4FCE010596B8010E948B
:1003C0007E058A8991E089278A8BC701B801AE0131
:1003D000475E5F4F0E9475000E94A904A096E6E068
:1003E0000C942410A0E2B0E0E8EFF1E00C940810C7
:1003F00069837A838B839C832D833E834F835887C5
:10040000F9E0EF2EF12CEC0EFD1ECE010196B701A6
:100410000E947E058E010F5E1F4FCE010596B8012A
:100420000E947E05C701B801AE01475E5F4F0E9482
:1004300075000E94A904A096E6E00C942410A0E2A6
:10044000B0E0E5E2F2E00C94FC0F69837A838B83E1
:100450009C832D833E834F835887CE010196BE0136
:10046000675F7F4F0E947E05CE010596BE016F5EDD
:100470007F4F0E947E059985923088F0898982306D
:10048000C8F0943019F4823051F404C0843029F457
:10049000923081F483EA90E0C6C0923049F420E0C3
:1004A0009A858A89981321E02A87CE010996BBC0D4
:1004B000823049F420E09A858A89981321E02A8BBA
:1004C000CE014196B0C02D843E844F8458886D88FB
:1004D0007E888F88988CEE24FF248701AA24BB2471
:1004E000650140E050E060E070E0E0E0F0E0C10174
:1004F00081709070892BE9F0E60CF71C081D191D1E
:100500009A01AB012A0D3B1D4C1D5D1D80E090E062
:10051000A0E0B0E0E614F7040805190520F481E036
:1005200090E0A0E0B0E0BA01A901480F591F6A1F8E
:100530007B1FAA0CBB1CCC1CDD1C97FE08C081E0F5
:1005400090E0A0E0B0E0A82AB92ACA2ADB2A3196B6
:10055000E032F10549F0660C771C881C991C569412
:10056000479437942794C3CFFA85EA892B893C892D
:100570008B859C85280F391F2E5F3F4F17C0CA01FE
:1005800081709070892B61F016950795F794E79428
:1005900080E090E0A0E0B0E8E82AF92A0A2B1B2BC3
:1005A00076956795579547952F5F3F4F77FDE7CF36
:1005B0000CC0440F551F661F771F17FD4160EE0CDE
:1005C000FF1C001F111F21503040403090E05907A0
:1005D00090E0690790E4790760F32B8F3C8FDB0193
:1005E000CA018F779070A070B07080349105A1051A
:1005F000B10561F447FD0AC0E114F10401051105DC
:1006000029F0405C5F4F6F4F7F4F40781A8EFE1786
:1006100011F081E08A8F4D8F5E8F6F8F78A383E01A
:10062000898FCE0149960E94A904A096E2E10C941C
:100630001810A8E1B0E0EFE1F3E00C940410698336
:100640007A838B839C832D833E834F835887B9E0C5
:10065000EB2EF12CEC0EFD1ECE010196B7010E948F
:100660007E058E010F5E1F4FCE010596B8010E94D8
:100670007E052985223008F47EC03989323010F495
:10068000B8017CC08A859A8989278A87243011F02D
:10069000223031F4231709F06EC063EA70E06EC0B7
:1006A000343039F41D861E861F86188A1C861B86E8
:1006B00004C0323021F484E08987B7015FC02B8504
:1006C0003C858B899C89281B390B3C872B87ED84C3
:1006D000FE840F851889AD88BE88CF88D88CEA142F
:1006E000FB040C051D0540F4EE0CFF1C001F111F40
:1006F000215030403C872B8720E030E040E050E044
:1007000080E090E0A0E0B0E460E070E0EA14FB0478
:100710000C051D0540F0282B392B4A2B5B2BEA18C2
:10072000FB080C091D09B695A79597958795EE0CC2
:10073000FF1C001F111F6F5F7F4F6F31710531F775
:10074000DA01C9018F779070A070B0708034910584
:10075000A105B10561F427FD0AC0E114F10401050A
:10076000110529F0205C3F4F4F4F5F4F20782D87B8
:100770003E874F87588BBE01675F7F4FCB010E943A
:10078000A9046896EAE00C942010A8E1B0E0EBEC34
:10079000F3E00C94081069837A838B839C832D8308
:1007A0003E834F83588789E0E82EF12CEC0EFD1E26
:1007B000CE010196B7010E947E058E010F5E1F4F8C
:1007C000CE010596B8010E947E058985823040F0F1
:1007D0008989823028F0C701B8010E94F60501C05E
:1007E0008FEF6896E6E00C942410A8E1B0E0EBEF00
:1007F000F3E00C94081069837A838B839C832D83A8
:100800003E834F83588789E0E82EF12CEC0EFD1EC5
:10081000CE010196B7010E947E058E010F5E1F4F2B
:10082000CE010596B8010E947E058985823040F090
:100830008989823028F0C701B8010E94F60501C0FD
:100840008FEF6896E6E00C942410A8E1B0E0EBE2AC
:10085000F4E00C94081069837A838B839C832D8346
:100860003E834F83588789E0E82EF12CEC0EFD1E65
:10087000CE010196B7010E947E058E010F5E1F4FCB
:10088000CE010596B8010E947E058985823040F030
:100890008989823028F0C701B8010E94F60501C09D
:1008A00081E06896E6E00C942410ACE0B0E0EBE563
:1008B000F4E00C940C1069837A838B839C83CE01C3
:1008C0000196BE016B5F7F4F0E947E058D81823055
:1008D00061F1823050F1843021F48E81882351F10E
:1008E0002EC02F81388537FD20C06E812F31310514
:1008F0001CF06623F9F023C08EE190E0821B930B7D
:1009000029853A854B855C8504C056954795379572
:1009100027958A95D2F76623B1F05095409530958A
:1009200021953F4F4F4F5F4F0EC020E030E040E039
:1009300050E009C02FEF3FEF4FEF5FE704C020E02A
:1009400030E040E050E8B901CA012C96E2E00C9496
:100950002810DF92EF92FF920F931F93FC01E48027
:10096000F58006811781D1808081823048F480E053
:1009700090E0A0E1B0E0E82AF92A0A2B1B2BA5C0E1
:10098000843009F49FC0823021F4EE24FF248701D3
:1009900005C0E114F1040105110519F4E0E0F0E0EF
:1009A00096C0628173819FEF623879070CF05BC05B
:1009B00022E83FEF261B370B2A3131052CF020E0CF
:1009C00030E040E050E02AC0B801A701022E04C088
:1009D00076956795579547950A94D2F781E090E010
:1009E000A0E0B0E004C0880F991FAA1FBB1F2A9582
:1009F000D2F70197A109B1098E219F21A023B1232C
:100A00000097A105B10521F081E090E0A0E0B0E001
:100A10009A01AB01282B392B4A2B5B2BDA01C90138
:100A20008F779070A070B07080349105A105B105EA
:100A300039F427FF09C0205C3F4F4F4F5F4F04C080
:100A4000215C3F4F4F4F5F4FE0E0F0E02030A0E0EF
:100A50003A07A0E04A07A0E45A0710F0E1E0F0E00E
:100A600079018A0127C06038710564F5FB01E158FE
:100A7000FF4FD801C7018F779070A070B07080349D
:100A80009105A105B10539F4E7FE0DC080E490E0C1
:100A9000A0E0B0E004C08FE390E0A0E0B0E0E80E9A
:100AA000F91E0A1F1B1F17FF05C016950795F7941F
:100AB000E794319687E016950795F794E7948A9521
:100AC000D1F705C0EE24FF248701EFEFF0E06E2F91
:100AD000679566276795902F9F77D794DD24D794E5
:100AE0008E2F8695492F462B582F5D29B701CA01B5
:100AF0001F910F91FF90EF90DF900895FC01DB01B3
:100B0000408151812281622F6F7770E0221F22275E
:100B1000221F9381892F880F822B282F30E0991F65
:100B20009927991F11969C93119721153105A9F5C5
:100B3000411551056105710511F482E037C082E865
:100B40009FEF13969C938E9312979A01AB0167E0E7
:100B5000220F331F441F551F6A95D1F783E08C93F2
:100B60000DC0220F331F441F551F12968D919C916B
:100B70001397019713969C938E931297203080E0E1
:100B8000380780E0480780E4580758F314962D93FF
:100B90003D934D935C93179708952F3F310579F45A
:100BA000411551056105710519F484E08C93089590
:100BB00064FF03C081E08C9312C01C9210C02F57B9
:100BC000304013963C932E93129783E08C9387E0EA
:100BD000440F551F661F771F8A95D1F770641496CE
:100BE0004D935D936D937C93179708951F93DC014C
:100BF000FB019C91923008F447C08081823008F458
:100C000043C0943051F411961C91843099F5818140
:100C1000682F70E0611B71093FC0843021F0923071
:100C200031F48230B9F18181882389F12DC0119688
:100C30001C9111978230F1F081811817D9F4129626
:100C40002D913C911397828193818217930794F0A1
:100C500028173907BCF014968D919D910D90BC9189
:100C6000A02D2481358146815781281739074A07ED
:100C70005B0718F4112341F00AC082179307A407F9
:100C8000B50740F4112319F061E070E005C06FEF83
:100C90007FEF02C060E070E0CB011F910895DF9309
:100CA000CF93CDB7DEB7A7E2B0E0E7E2F0E0808116
:100CB0008F778C93A7E2B0E0E7E2F0E08081806478
:100CC0008C93A7E2B0E0E7E2F0E0808180628C9351
:100CD000A7E2B0E0E7E2F0E0808180628C93A6E2D8
:100CE000B0E0E6E2F0E0808188778C93A6E2B0E0A5
:100CF000E6E2F0E0808187608C93A6E2B0E0E6E275
:100D0000F0E0808180688C93CF91DF910895DF932C
:100D1000CF93CDB7DEB728970FB6F894DEBF0FBEDE
:100D2000CDBF8E8378876F8381E08D8319821A828D
:100D30001B821C828F819885009709F461C0809185
:100D4000B000882309F059C0A7E2B0E0E7E2F0E084
:100D50008081807E8C93A7E2B0E0E7E2F0E09081B2
:100D60008E81892B8C93A6E2B0E0E6E2F0E08081F0
:100D700080648C930BC089819A81AB81BC81019680
:100D8000A11DB11D89839A83AB83BC83E6E2F0E0A9
:100D9000808182958F70882F90E08170907000978D
:100DA00061F489819A81AB81BC81803523EC920703
:100DB00020E0A20720E0B207F1F689819A81AB8199
:100DC000BC81803523EC920720E0A20720E0B20727
:100DD00019F484E08D8316C0A6E2B0E0E6E2F0E00C
:100DE000808180618C93E5E2F0E08081882F90E043
:100DF000EF81F8859183808305C085E08D8302C0F3
:100E000083E08D838D8128960FB6F894DEBF0FBEE8
:100E1000CDBFCF91DF910895DF93CF9300D000D065
:100E200000D0CDB7DEB78A837C836B835E834D832E
:100E300081E089838B819C810097D1F18D819E8196
:100E40000097B1F18091B000882379F581E080931B
:100E5000B000EB81FC81808191819093AD00809303
:100E6000AC008D819E819093AF008093AE00A7E28D
:100E7000B0E0E7E2F0E08081807E8C93A7E2B0E012
:100E8000E7E2F0E090818A81892B8C93A6E2B0E0C2
:100E9000E6E2F0E0808180648C93A6E2B0E0E6E2D6
:100EA000F0E0808188608C9305C085E0898302C072
:100EB00083E08983898126960FB6F894DEBF0FBE42
:100EC000CDBFCF91DF9108951F920F920FB60F9271
:100ED00011242F933F934F935F936F937F938F933F
:100EE0009F93AF93BF93EF93FF93DF93CF93CDB7D0
:100EF000DEB7E5E2F0E08081882F90E09093AD00CE
:100F00008093AC00A6E2B0E0E6E2F0E08081877F6B
:100F10008C931092B0008091AE009091AF0000973A
:100F200029F0E091AE00F091AF000995CF91DF91EB
:100F3000FF91EF91BF91AF919F918F917F916F91B1
:100F40005F914F913F912F910F900FBE0F901F9087
:100F50001895DF93CF93CDB7DEB728970FB6F894E7
:100F6000DEBF0FBECDBF8A836B834C8381E0898354
:100F70008B81883008F0F6C08C81882309F078C016
:100F80008A81282F30E038872F838F81988582309F
:100F9000910561F12F8138852330310534F48F813B
:100FA00098858130910569F060C02F8138852330A4
:100FB000310589F18F8198858430910509F440C00D
:100FC00054C0ABE3B0E0EBE3F0E08081482F8B81CD
:100FD000282F30E081E090E0022E02C0880F991F98
:100FE0000A94E2F7809584238C93BEC0A8E3B0E016
:100FF000E8E3F0E08081482F8B81282F30E081E00A
:1010000090E0022E02C0880F991F0A94E2F78095A3
:1010100084238C93A9C0A5E3B0E0E5E3F0E08081F0
:10102000482F8B81282F30E081E090E0022E02C013
:10103000880F991F0A94E2F7809584238C9394C0BB
:10104000A2E3B0E0E2E3F0E08081482F8B81282F1B
:1010500030E081E090E0022E02C0880F991F0A94D0
:10106000E2F7809584238C937FC082E089837CC0E3
:101070008C81813009F073C08A81282F30E03E8353
:101080002D838D819E818230910551F12D813E818C
:101090002330310534F48D819E818130910561F0DA
:1010A0005BC02D813E812330310571F18D819E81A0
:1010B00084309105E9F150C0ABE3B0E0EBE3F0E040
:1010C0008081482F8B81282F30E081E090E0022E34
:1010D00002C0880F991F0A94E2F7842B8C9344C0B6
:1010E000A8E3B0E0E8E3F0E08081482F8B81282F6F
:1010F00030E081E090E0022E02C0880F991F0A9430
:10110000E2F7842B8C9330C0A5E3B0E0E5E3F0E098
:101110008081482F8B81282F30E081E090E0022EE3
:1011200002C0880F991F0A94E2F7842B8C931CC08D
:10113000A2E3B0E0E2E3F0E08081482F8B81282F2A
:1011400030E081E090E0022E02C0880F991F0A94DF
:10115000E2F7842B8C9308C082E0898305C082E08B
:10116000898302C082E08983898128960FB6F8942A
:10117000DEBF0FBECDBFCF91DF910895DF93CF9338
:1011800000D000D00F92CDB7DEB78A836B8381E0A9
:1011900089838A81282F30E03D832C838C819D8137
:1011A00082309105D9F02C813D812330310534F412
:1011B0008C819D818130910561F01FC02C813D8122
:1011C0002330310581F08C819D818430910581F03F
:1011D00014C0EBE3F0E08B81808311C0E8E3F0E022
:1011E0008B8180830CC0E5E3F0E08B81808307C0B6
:1011F000E2E3F0E08B81808302C082E08983898111
:101200000F900F900F900F900F90CF91DF91089556
:10121000DF93CF93CDB7DEB727970FB6F894DEBF35
:101220000FBECDBF8A836B835D834C8381E089834E
:101230008B81883008F063C08A81282F30E03F839B
:101240002E838E819F818230910531F12E813F81E5
:101250002330310534F48E819F818130910561F016
:101260004BC02E813F812330310531F18E819F812A
:101270008430910589F140C08B81282F30E081E0D6
:1012800090E0022E02C0959587950A94E2F781704E
:10129000EC81FD81808335C08B81282F30E082E096
:1012A00090E0022E02C0959587950A94E2F781702E
:1012B000EC81FD81808325C08B81282F30E083E085
:1012C00090E0022E02C0959587950A94E2F781700E
:1012D000EC81FD81808315C08B81282F30E084E074
:1012E00090E0022E02C0959587950A94E2F78170EE
:1012F000EC81FD81808305C082E0898302C082E0A9
:101300008983898127960FB6F894DEBF0FBECDBFC3
:10131000CF91DF910895DF93CF93CDB7DEB7789467
:10132000CF91DF910895DF93CF93CDB7DEB7F894D7
:10133000CF91DF910895DF93CF93CDB7DEB72E978E
:101340000FB6F894DEBF0FBECDBF82E062E041E091
:101350000E94A90780E090E0A0E0B0E48B879C8722
:10136000AD87BE876B857C858D859E8520E030E0CE
:101370004AE755E40E941F02DC01CB018F83988766
:10138000A987BA876F81788589859A8520E030E0C2
:1013900040E85FE30E94250488232CF481E090E07C
:1013A0009E838D833FC06F81788589859A8520E0F3
:1013B0003FEF4FE757E40E94C50318164CF56B85C5
:1013C0007C858D859E8520E030E040E251E40E94DE
:1013D0001F02DC01CB01BC01CD010E944900DC01F0
:1013E000CB019E838D830FC080E991E09C838B832A
:1013F0008B819C810197F1F79C838B838D819E81EA
:1014000001979E838D838D819E81009769F714C01B
:101410006F81788589859A850E944900DC01CB011E
:101420009E838D838D819E819A83898389819A8110
:101430000197F1F79A83898382E062E040E00E949D
:10144000A9072E960FB6F894DEBF0FBECDBFCF9181
:10145000DF910895DF93CF93CDB7DEB78FE30E947E
:101460004A0A82E063E041E00E94A90782E064E06A
:1014700041E00E94A90782E060E040E00E94A907E5
:1014800082E061E040E00E94A9070E949B09CF91A1
:10149000DF910895DF93CF930F92CDB7DEB78983A5
:1014A00083E069810E94BE0882E060E040E00E9423
:1014B000A90782E061E040E00E94A9070E949B0921
:1014C0000F90CF91DF910895DF93CF930F92CDB717
:1014D000DEB7898383E069810E94BE0882E060E014
:1014E00041E00E94A90782E061E040E00E94A90774
:1014F0000E949B090F90CF91DF910895DF93CF93C6
:1015000000D000D0CDB7DEB79C838B8381E08A8387
:1015100019828B819C810097D9F00EC08981282F78
:1015200030E08B819C81FC01E20FF31F80810E94DF
:10153000640A89818F5F89838981282F30E08B81BC
:101540009C81FC01E20FF31F8081882339F702C0E0
:1015500083E08A838A810F900F900F900F90CF9134
:10156000DF910895DF93CF9300D000D0CDB7DEB7E1
:101570008A8381E0898382E063E041E00E94A907D9
:1015800082E064E041E00E94A90782E060E040E080
:101590000E94A90782E061E040E00E94A9078A81D9
:1015A000883008F058C08A81282F30E03C832B8394
:1015B0008B819C8183309105A9F12B813C81243062
:1015C00031057CF48B819C818130910519F12B814F
:1015D0003C812230310514F58B819C810097B1F05C
:1015E00035C02B813C812530310521F18B819C81D7
:1015F00085309105DCF02B813C8126303105F1F0FE
:101600008B819C8187309105E9F020C088EB0E9496
:101610004A0A1EC089EB0E944A0A1AC08AEB0E943D
:101620004A0A16C08BEB0E944A0A12C08CEB0E9439
:101630004A0A0EC08DEB0E944A0A0AC08EEB0E9435
:101640004A0A06C08FEB0E944A0A02C082E08983E0
:101650000E949B0902C082E0898389810F900F90CC
:101660000F900F90CF91DF910895DF93CF9300D02B
:10167000CDB7DEB78A8381E089838A818823FCF035
:101680008A81803458F482E063E041E00E94A90737
:1016900082E064E040E00E94A90713C08A818034A0
:1016A00058F082E063E040E00E94A90782E064E035
:1016B00041E00E94A90705C082E0898302C082E060
:1016C000898382E060E040E00E94A90782E061E057
:1016D00040E00E94A9070E949B0989810F900F900A
:1016E000CF91DF910895EF92FF920F931F93DF93B5
:1016F000CF93CDB7DEB728970FB6F894DEBF0FBEF5
:10170000CDBF6D837E838F83988781E090E0A0E0DA
:10171000B0E089839A83AB83BC838D819E81AF8146
:10172000B8850097A105B10581F580E30E94640AA0
:1017300060C089819A81AB81BC812AE030E040E0C1
:1017400050E0BC01CD010E94BB0F7B018C018D815B
:101750009E81AF81B8852AE030E040E050E0BC01D6
:10176000CD010E94DA0FDC01CB018E0D9F1DA01F61
:10177000B11F89839A83AB83BC838AE090E0A0E0A9
:10178000B0E08D839E83AF83B8878D819E81AF81CA
:10179000B8850097A105B10561F689819A81AB8171
:1017A000BC812AE030E040E050E0BC01CD010E9465
:1017B000DA0FDC01CB01805D0E94640A89819A8185
:1017C000AB81BC812AE030E040E050E0BC01CD01BB
:1017D0000E94DA0FDA01C90189839A83AB83BC8343
:1017E00089819A81AB81BC8181309105A105B105C8
:1017F000A1F628960FB6F894DEBF0FBECDBFCF91ED
:10180000DF911F910F91FF90EF900895DF93CF9399
:1018100000D00F92CDB7DEB788E0898382E063E025
:1018200041E00E94A90782E064E041E00E94A9072C
:101830001B821AC08B810E94B20A1A8209C08A8157
:101840000E94350B80E00E94640A8A818F5F8A8340
:101850008A818823A4F780E00E94B20A80E00E9477
:10186000350B8B818F5F8B839B818981981710F358
:101870000F900F900F90CF91DF910895DF93CF934A
:1018800000D000D0CDB7DEB78A836B834C8381E074
:1018900089838C818823A4F08A81883088F48B81A5
:1018A000883070F48A810E94B20A8C810E94350BC4
:1018B00080E690E00E947E0A8B810E94B20A02C0FC
:1018C00082E0898389810F900F900F900F90CF91C4
:1018D000DF910895DF93CF9300D000D0CDB7DEB76E
:1018E0008A836B834C8381E089838A818823A4F077
:1018F0008B8188238CF08C81883070F48C810E94DD
:10190000B20A8A810E94350B80E690E00E947E0A2E
:101910008B810E94350B02C082E0898389810F9000
:101920000F900F900F90CF91DF910895DF93CF9399
:10193000CDB7DEB7EAE3F0E01082E7E3F0E08FE353
:101940008083E4E3F0E08FEF8083E1E3F0E0108256
:10195000EBE3F0E01082E8E3F0E01082E5E3F0E092
:101960001082E2E3F0E01082CF91DF910895DF93DF
:10197000CF93CDB7DEB7A3E5B0E0E3E5F0E080813B
:101980008F7B8C93A3E5B0E0E3E5F0E08081886095
:101990008C93A3E5B0E0E3E5F0E08081887F8C9351
:1019A000A3E5B0E0E3E5F0E0808183608C93ECE5B3
:1019B000F0E08AEF8083A9E5B0E0E9E5F0E080811E
:1019C00082608C93CF91DF910895DF93CF9300D005
:1019D00000D0CDB7DEB78A837C836B8381E08983B7
:1019E0008B819C810097B9F08A81882339F48B819F
:1019F0009C819093B2008093B1000FC08A818130A6
:101A000039F48B819C819093B4008093B30005C01E
:101A100082E0898302C083E0898389810F900F90DF
:101A20000F900F90CF91DF9108951F920F920FB6F4
:101A30000F9211242F933F934F935F936F937F9354
:101A40008F939F93AF93BF93EF93FF93DF93CF93C6
:101A5000CDB7DEB78091B3009091B400009729F024
:101A6000E091B300F091B4000995CF91DF91FF911F
:101A7000EF91BF91AF919F918F917F916F915F9106
:101A80004F913F912F910F900FBE0F901F9018957F
:101A9000DF93CF930F92CDB7DEB71982898180682B
:101AA0008983898182608983898184608983E0E474
:101AB000F0E089818083E9E2F0E087E68083AAE2B2
:101AC000B0E0EAE2F0E0808180618C93AAE2B0E0CD
:101AD000EAE2F0E0808188608C930F90CF91DF91F3
:101AE0000895DF93CF930F92CDB7DEB78983EBE2F2
:101AF000F0E08081829586958770882F90E08170D4
:101B000090700097A1F3ECE2F0E0898180830F9060
:101B1000CF91DF910895DF93CF93CDB7DEB7EBE29E
:101B2000F0E080818823DCF7ECE2F0E08081CF9167
:101B3000DF910895DF93CF93CDB7DEB7EB970FB664
:101B4000F894DEBF0FBECDBF8CEA9CE1AAE7BFE3ED
:101B500089AB9AABABABBCAB84E088AB80E090E0E8
:101B6000A0E8BEE38CA79DA7AEA7BFA70E948B0DE0
:101B70008BA70E94960C0E944F060E94B70C0E94F1
:101B80002A0A0E94060C2FEA3FE081E0B9010E9478
:101B9000E50C0E948B098FA9282F30E03BAF2AAFBC
:101BA00019AE18AE8BA5813021F481E090E099AF99
:101BB00088AF8AAD9BAD28AD39AD822B932B0097B2
:101BC00051F39E01295C3F4F80E0B9010E948706D6
:101BD0008FA9882F90E0A0E0B0E028E833E140E052
:101BE00050E0BC01CD010E94BB0FDC01CB01892F6D
:101BF0009A2FAB2FBB279EAB8DAB81E00E94B20A20
:101C000081E00E94350B89E690E00E947E0A81E027
:101C10000E94B20A8AE00E94350B6CA57DA58EA5B4
:101C20009FA520E030E04AE754E40E941903DC015C
:101C3000CB01BC01CD010E944900DC01CB01BC01FC
:101C4000CD010E94730B80E090E0A8ECB2E48FA37A
:101C500098A7A9A7BAA76FA178A589A59AA520E0FA
:101C600030E04AE755E40E941F02DC01CB018BA360
:101C70009CA3ADA3BEA36BA17CA18DA19EA120E0DE
:101C800030E040E85FE30E94250488232CF481E0E3
:101C900090E09AA389A33FC06BA17CA18DA19EA1D6
:101CA00020E03FEF4FE757E40E94C50318164CF5BC
:101CB0006FA178A589A59AA520E030E040E251E423
:101CC0000E941F02DC01CB01BC01CD010E94490032
:101CD000DC01CB019AA389A30FC080E991E098A30E
:101CE0008F8F8F8D98A10197F1F798A38F8F89A17E
:101CF0009AA101979AA389A389A19AA1009769F74C
:101D000014C06BA17CA18DA19EA10E944900DC01A1
:101D1000CB019AA389A389A19AA19E8F8D8F8D8DC6
:101D20009E8D0197F1F79E8F8D8F81E00E94B20A00
:101D300080E40E94350B8FE790E00E947E0A81E0EC
:101D40000E94B20A86E40E94350B69A97AA98BA980
:101D50009CA90E944900DC01CB01BC01CD010E947D
:101D6000730B80E090E0A8ECB2E4898F9A8FAB8F80
:101D7000BC8F698D7A8D8B8D9C8D20E030E04AE799
:101D800055E40E941F02DC01CB018D8B9E8BAF8B33
:101D9000B88F6D897E898F89988D20E030E040E88A
:101DA0005FE30E94250488232CF481E090E09C8B63
:101DB0008B8B3FC06D897E898F89988D20E03FEFA6
:101DC0004FE757E40E94C50318164CF5698D7A8DCC
:101DD0008B8D9C8D20E030E040E251E40E941F0298
:101DE000DC01CB01BC01CD010E944900DC01CB012B
:101DF0009C8B8B8B0FC080E991E09A8B898B8989B2
:101E00009A890197F1F79A8B898B8B899C89019725
:101E10009C8B8B8B8B899C89009769F714C06D898B
:101E20007E898F89988D0E944900DC01CB019C8BB3
:101E30008B8B8B899C89988B8F878F85988901974D
:101E4000F1F7988B8F8782E00E94B20A81E00E94AE
:101E5000350B8DE890E00E947E0A82E00E94B20A73
:101E60008AE00E94350B88A9882F90E0A0E0B0E0BE
:101E7000BC01CD010E94730B80E090E0A8ECB2E4BD
:101E80008B879C87AD87BE876B857C858D859E857E
:101E900020E030E04AE755E40E941F02DC01CB015C
:101EA0008F839887A987BA876F81788589859A8576
:101EB00020E030E040E85FE30E94250488232CF412
:101EC00081E090E09E838D833FC06F817885898516
:101ED0009A8520E03FEF4FE757E40E94C5031816AC
:101EE0004CF56B857C858D859E8520E030E040E259
:101EF00051E40E941F02DC01CB01BC01CD010E9414
:101F00004900DC01CB019E838D830FC080E991E005
:101F10009C838B838B819C810197F1F79C838B83BE
:101F20008D819E8101979E838D838D819E810097F7
:101F300069F731CE6F81788589859A850E9449003D
:101F4000DC01CB019E838D838D819E819A83898361
:101F500089819A810197F1F79A8389831CCEDF9357
:101F6000CF93CDB7DEB78091B5008F5F8093B5007A
:101F7000CF91DF910895629FD001739FF001829FFE
:101F8000E00DF11D649FE00DF11D929FF00D839F08
:101F9000F00D749FF00D659FF00D9927729FB00DA5
:101FA000E11DF91F639FB00DE11DF91FBD01CF01B8
:101FB00011240895A1E21A2EAA1BBB1BFD010DC01E
:101FC000AA1FBB1FEE1FFF1FA217B307E407F507E9
:101FD00020F0A21BB30BE40BF50B661F771F881FC5
:101FE000991F1A9469F760957095809590959B015B
:101FF000AC01BD01CF0108952F923F924F925F92A5
:102000006F927F928F929F92AF92BF92CF92DF9208
:10201000EF92FF920F931F93CF93DF93CDB7DEB76D
:10202000CA1BDB0B0FB6F894DEBF0FBECDBF099401
:102030002A88398848885F846E847D848C849B8458
:10204000AA84B984C884DF80EE80FD800C811B8166
:10205000AA81B981CE0FD11D0FB6F894DEBF0FBE95
:0A206000CDBFED010895F894FFCF05
:10206A002E2E2E2E2E2E2E2E004672657175656E20
:10207A0063792028696E204B485A292069730044E5
:10208A00757479204379636C6520697300437963B9
:10209A006C652054696D652028696E207573292046
:0C20AA006973000000000000000000004E
:00000001FF
